{
  "_format": "hh-sol-artifact-1",
  "contractName": "Greeting",
  "sourceName": "contracts/Greeting.sol",
  "abi": [
    {
      "inputs": [],
      "name": "greeting",
      "outputs": [
        {
          "internalType": "string",
          "name": "",
          "type": "string"
        }
      ],
      "stateMutability": "view",
      "type": "function"
    },
    {
      "inputs": [
        {
          "internalType": "string",
          "name": "text",
          "type": "string"
        }
      ],
      "name": "setGreeting",
      "outputs": [],
      "stateMutability": "nonpayable",
      "type": "function"
    }
  ],
  "bytecode": "0x60806040526040518060400160405280600c81526020017f48656c6c6f20576f726c642100000000000000000000000000000000000000008152506000908051906020019061004f929190610062565b5034801561005c57600080fd5b50610166565b82805461006e90610134565b90600052602060002090601f01602090048101928261009057600085556100d7565b82601f106100a957805160ff19168380011785556100d7565b828001600101855582156100d7579182015b828111156100d65782518255916020019190600101906100bb565b5b5090506100e491906100e8565b5090565b5b808211156101015760008160009055506001016100e9565b5090565b7f4e487b7100000000000000000000000000000000000000000000000000000000600052602260045260246000fd5b6000600282049050600182168061014c57607f821691505b602082108114156101605761015f610105565b5b50919050565b6103ca806101756000396000f3fe608060405234801561001057600080fd5b50600436106100365760003560e01c8063a41368621461003b578063ef690cc014610057575b600080fd5b6100556004803603810190610050919061022b565b610075565b005b61005f61008b565b60405161006c9190610311565b60405180910390f35b818160009190610086929190610119565b505050565b6000805461009890610362565b80601f01602080910402602001604051908101604052809291908181526020018280546100c490610362565b80156101115780601f106100e657610100808354040283529160200191610111565b820191906000526020600020905b8154815290600101906020018083116100f457829003601f168201915b505050505081565b82805461012590610362565b90600052602060002090601f016020900481019282610147576000855561018e565b82601f1061016057803560ff191683800117855561018e565b8280016001018555821561018e579182015b8281111561018d578235825591602001919060010190610172565b5b50905061019b919061019f565b5090565b5b808211156101b85760008160009055506001016101a0565b5090565b600080fd5b600080fd5b600080fd5b600080fd5b600080fd5b60008083601f8401126101eb576101ea6101c6565b5b8235905067ffffffffffffffff811115610208576102076101cb565b5b602083019150836001820283011115610224576102236101d0565b5b9250929050565b60008060208385031215610242576102416101bc565b5b600083013567ffffffffffffffff8111156102605761025f6101c1565b5b61026c858286016101d5565b92509250509250929050565b600081519050919050565b600082825260208201905092915050565b60005b838110156102b2578082015181840152602081019050610297565b838111156102c1576000848401525b50505050565b6000601f19601f8301169050919050565b60006102e382610278565b6102ed8185610283565b93506102fd818560208601610294565b610306816102c7565b840191505092915050565b6000602082019050818103600083015261032b81846102d8565b905092915050565b7f4e487b7100000000000000000000000000000000000000000000000000000000600052602260045260246000fd5b6000600282049050600182168061037a57607f821691505b6020821081141561038e5761038d610333565b5b5091905056fea2646970667358221220c83a6d2b63539d7b03016518841a541583437d23688484307b54aeb44414653764736f6c63430008090033",
  "linkReferences": {},
  "deployedLinkReferences": {}
}